{
  "contractName": "QuestionFactory",
  "abi": [
    {
      "constant": true,
      "inputs": [
        {
          "name": "",
          "type": "uint256"
        }
      ],
      "name": "answers",
      "outputs": [
        {
          "name": "questionId",
          "type": "uint256"
        },
        {
          "name": "text",
          "type": "string"
        },
        {
          "name": "owner",
          "type": "address"
        }
      ],
      "payable": false,
      "stateMutability": "view",
      "type": "function"
    },
    {
      "constant": true,
      "inputs": [
        {
          "name": "",
          "type": "uint256"
        }
      ],
      "name": "questions",
      "outputs": [
        {
          "name": "text",
          "type": "string"
        },
        {
          "name": "owner",
          "type": "address"
        }
      ],
      "payable": false,
      "stateMutability": "view",
      "type": "function"
    },
    {
      "constant": true,
      "inputs": [
        {
          "name": "_owner",
          "type": "address"
        }
      ],
      "name": "getQuestionsByOwner",
      "outputs": [
        {
          "name": "",
          "type": "uint256[]"
        }
      ],
      "payable": false,
      "stateMutability": "view",
      "type": "function"
    },
    {
      "constant": true,
      "inputs": [
        {
          "name": "_questionId",
          "type": "uint256"
        }
      ],
      "name": "getAnswersByQuestion",
      "outputs": [
        {
          "name": "",
          "type": "uint256[]"
        }
      ],
      "payable": false,
      "stateMutability": "view",
      "type": "function"
    },
    {
      "constant": false,
      "inputs": [
        {
          "name": "_questionId",
          "type": "uint256"
        },
        {
          "name": "_text",
          "type": "string"
        }
      ],
      "name": "giveAnswer",
      "outputs": [
        {
          "name": "",
          "type": "uint256"
        }
      ],
      "payable": false,
      "stateMutability": "nonpayable",
      "type": "function"
    },
    {
      "constant": true,
      "inputs": [
        {
          "name": "_answerId",
          "type": "uint256"
        }
      ],
      "name": "getAnswer",
      "outputs": [
        {
          "name": "",
          "type": "uint256"
        },
        {
          "name": "",
          "type": "string"
        },
        {
          "name": "",
          "type": "address"
        }
      ],
      "payable": false,
      "stateMutability": "view",
      "type": "function"
    },
    {
      "constant": true,
      "inputs": [
        {
          "name": "",
          "type": "address"
        }
      ],
      "name": "ownerQuestionCount",
      "outputs": [
        {
          "name": "",
          "type": "uint256"
        }
      ],
      "payable": false,
      "stateMutability": "view",
      "type": "function"
    },
    {
      "constant": false,
      "inputs": [
        {
          "name": "_text",
          "type": "string"
        }
      ],
      "name": "makeQuestion",
      "outputs": [
        {
          "name": "",
          "type": "uint256"
        }
      ],
      "payable": false,
      "stateMutability": "nonpayable",
      "type": "function"
    },
    {
      "constant": true,
      "inputs": [
        {
          "name": "_questionId",
          "type": "uint256"
        }
      ],
      "name": "getQuestion",
      "outputs": [
        {
          "name": "",
          "type": "string"
        },
        {
          "name": "",
          "type": "address"
        }
      ],
      "payable": false,
      "stateMutability": "view",
      "type": "function"
    }
  ],
  "bytecode": "0x6060604052341561000f57600080fd5b6111cd8061001e6000396000f300606060405260043610610099576000357c0100000000000000000000000000000000000000000000000000000000900463ffffffff16806317599cc51461009e57806331b1b97814610191578063612ef3491461027d5780636a10ab091461030b578063a6a1118514610383578063b5ab58dc146103ce578063ca12a83d146104a4578063d20b4f7d146104f1578063db88176f14610562575b600080fd5b34156100a957600080fd5b6100bf6004808035906020019091905050610631565b60405180848152602001806020018373ffffffffffffffffffffffffffffffffffffffff1673ffffffffffffffffffffffffffffffffffffffff1681526020018281038252848181546001816001161561010002031660029004815260200191508054600181600116156101000203166002900480156101805780601f1061015557610100808354040283529160200191610180565b820191906000526020600020905b81548152906001019060200180831161016357829003601f168201915b505094505050505060405180910390f35b341561019c57600080fd5b6101b26004808035906020019091905050610689565b60405180806020018373ffffffffffffffffffffffffffffffffffffffff1673ffffffffffffffffffffffffffffffffffffffff16815260200182810382528481815460018160011615610100020316600290048152602001915080546001816001161561010002031660029004801561026d5780601f106102425761010080835404028352916020019161026d565b820191906000526020600020905b81548152906001019060200180831161025057829003601f168201915b5050935050505060405180910390f35b341561028857600080fd5b6102b4600480803573ffffffffffffffffffffffffffffffffffffffff169060200190919050506106db565b6040518080602001828103825283818151815260200191508051906020019060200280838360005b838110156102f75780820151818401526020810190506102dc565b505050509050019250505060405180910390f35b341561031657600080fd5b61032c6004808035906020019091905050610824565b6040518080602001828103825283818151815260200191508051906020019060200280838360005b8381101561036f578082015181840152602081019050610354565b505050509050019250505060405180910390f35b341561038e57600080fd5b6103b8600480803590602001909190803590602001908201803590602001919091929050506108a2565b6040518082815260200191505060405180910390f35b34156103d957600080fd5b6103ef6004808035906020019091905050610a08565b60405180848152602001806020018373ffffffffffffffffffffffffffffffffffffffff1673ffffffffffffffffffffffffffffffffffffffff168152602001828103825284818151815260200191508051906020019080838360005b8381101561046757808201518184015260208101905061044c565b50505050905090810190601f1680156104945780820380516001836020036101000a031916815260200191505b5094505050505060405180910390f35b34156104af57600080fd5b6104db600480803573ffffffffffffffffffffffffffffffffffffffff16906020019091905050610b3f565b6040518082815260200191505060405180910390f35b34156104fc57600080fd5b61054c600480803590602001908201803590602001908080601f01602080910402602001604051908101604052809392919081815260200183838082843782019150505050505091905050610b57565b6040518082815260200191505060405180910390f35b341561056d57600080fd5b6105836004808035906020019091905050610d18565b60405180806020018373ffffffffffffffffffffffffffffffffffffffff1673ffffffffffffffffffffffffffffffffffffffff168152602001828103825284818151815260200191508051906020019080838360005b838110156105f55780820151818401526020810190506105da565b50505050905090810190601f1680156106225780820380516001836020036101000a031916815260200191505b50935050505060405180910390f35b60018181548110151561064057fe5b906000526020600020906003020160009150905080600001549080600101908060020160009054906101000a900473ffffffffffffffffffffffffffffffffffffffff16905083565b60008181548110151561069857fe5b906000526020600020906003020160009150905080600001908060010160009054906101000a900473ffffffffffffffffffffffffffffffffffffffff16905082565b6106e3610e5e565b6106eb610e5e565b600080600260008673ffffffffffffffffffffffffffffffffffffffff1673ffffffffffffffffffffffffffffffffffffffff1681526020019081526020016000205460405180591061073b5750595b9080825280602002602001820160405250925060009150600090505b600080549050811015610819578473ffffffffffffffffffffffffffffffffffffffff1660008281548110151561078a57fe5b906000526020600020906003020160010160009054906101000a900473ffffffffffffffffffffffffffffffffffffffff1673ffffffffffffffffffffffffffffffffffffffff16141561080c578083838151811015156107e757fe5b9060200190602002018181525050610809600183610e2790919063ffffffff16565b91505b8080600101915050610757565b829350505050919050565b61082c610e5e565b60008281548110151561083b57fe5b906000526020600020906003020160020180548060200260200160405190810160405280929190818152602001828054801561089657602002820191906000526020600020905b815481526020019060010190808311610882575b50505050509050919050565b6000806109b460018080548060010182816108bd9190610e72565b916000526020600020906003020160006060604051908101604052808b81526020018a8a8080601f01602080910402602001604051908101604052809392919081815260200183838082843782019150505050505081526020013373ffffffffffffffffffffffffffffffffffffffff16815250909190915060008201518160000155602082015181600101908051906020019061095c929190610ea4565b5060408201518160020160006101000a81548173ffffffffffffffffffffffffffffffffffffffff021916908373ffffffffffffffffffffffffffffffffffffffff1602179055505050610e4590919063ffffffff16565b90506000858154811015156109c557fe5b906000526020600020906003020160020180548060010182816109e89190610f24565b916000526020600020900160008390919091505550809150509392505050565b6000610a12610f50565b6000600184815481101515610a2357fe5b906000526020600020906003020160000154600185815481101515610a4457fe5b9060005260206000209060030201600101600186815481101515610a6457fe5b906000526020600020906003020160020160009054906101000a900473ffffffffffffffffffffffffffffffffffffffff16818054600181600116156101000203166002900480601f016020809104026020016040519081016040528092919081815260200182805460018160011615610100020316600290048015610b2b5780601f10610b0057610100808354040283529160200191610b2b565b820191906000526020600020905b815481529060010190602001808311610b0e57829003601f168201915b505050505091509250925092509193909250565b60026020528060005260406000206000915090505481565b6000610b61610f64565b60006060604051908101604052808581526020013373ffffffffffffffffffffffffffffffffffffffff1681526020016000604051805910610ba05750595b90808252806020026020018201604052508152509150610c76600160008054806001018281610bcf9190610fa8565b916000526020600020906003020160008690919091506000820151816000019080519060200190610c01929190610ea4565b5060208201518160010160006101000a81548173ffffffffffffffffffffffffffffffffffffffff021916908373ffffffffffffffffffffffffffffffffffffffff1602179055506040820151816002019080519060200190610c65929190610fda565b505050610e4590919063ffffffff16565b9050610ccb6001600260003373ffffffffffffffffffffffffffffffffffffffff1673ffffffffffffffffffffffffffffffffffffffff16815260200190815260200160002054610e2790919063ffffffff16565b600260003373ffffffffffffffffffffffffffffffffffffffff1673ffffffffffffffffffffffffffffffffffffffff168152602001908152602001600020819055508092505050919050565b610d20610f50565b60008083815481101515610d3057fe5b9060005260206000209060030201600001600084815481101515610d5057fe5b906000526020600020906003020160010160009054906101000a900473ffffffffffffffffffffffffffffffffffffffff16818054600181600116156101000203166002900480601f016020809104026020016040519081016040528092919081815260200182805460018160011615610100020316600290048015610e175780601f10610dec57610100808354040283529160200191610e17565b820191906000526020600020905b815481529060010190602001808311610dfa57829003601f168201915b5050505050915091509150915091565b6000808284019050838110151515610e3b57fe5b8091505092915050565b6000828211151515610e5357fe5b818303905092915050565b602060405190810160405280600081525090565b815481835581811511610e9f57600302816003028360005260206000209182019101610e9e9190611027565b5b505050565b828054600181600116156101000203166002900490600052602060002090601f016020900481019282601f10610ee557805160ff1916838001178555610f13565b82800160010185558215610f13579182015b82811115610f12578251825591602001919060010190610ef7565b5b509050610f209190611085565b5090565b815481835581811511610f4b57818360005260206000209182019101610f4a9190611085565b5b505050565b602060405190810160405280600081525090565b606060405190810160405280610f786110aa565b8152602001600073ffffffffffffffffffffffffffffffffffffffff168152602001610fa26110be565b81525090565b815481835581811511610fd557600302816003028360005260206000209182019101610fd491906110d2565b5b505050565b828054828255906000526020600020908101928215611016579160200282015b82811115611015578251825591602001919060010190610ffa565b5b5090506110239190611085565b5090565b61108291905b8082111561107e5760008082016000905560018201600061104e9190611138565b6002820160006101000a81549073ffffffffffffffffffffffffffffffffffffffff02191690555060030161102d565b5090565b90565b6110a791905b808211156110a357600081600090555060010161108b565b5090565b90565b602060405190810160405280600081525090565b602060405190810160405280600081525090565b61113591905b8082111561113157600080820160006110f19190611138565b6001820160006101000a81549073ffffffffffffffffffffffffffffffffffffffff02191690556002820160006111289190611180565b506003016110d8565b5090565b90565b50805460018160011615610100020316600290046000825580601f1061115e575061117d565b601f01602090049060005260206000209081019061117c9190611085565b5b50565b508054600082559060005260206000209081019061119e9190611085565b505600a165627a7a723058203f9be8ee6ef5dbdab30756822309d536b7861b5785c0b465e9d571c6f939833b0029",
  "source": "pragma solidity ^0.4.18;\n\nimport 'zeppelin-solidity/contracts/math/SafeMath.sol';\n\ncontract QuestionFactory{\n  using SafeMath for uint256;\n\n  struct Question {\n    string text;\n    address owner;\n    uint[] answers;\n  }\n\n  struct Answer {\n    uint questionId;\n    string text;\n    address owner;\n  }\n  \n  Question[] public questions;\n  Answer[] public answers;\n\n  mapping (address => uint) public ownerQuestionCount;\n\n  /**\n   * Make a question, providing the reward for the correct answer\n   */\n  function makeQuestion(string _text) public returns(uint) {\n    Question memory _q = Question(_text, msg.sender, new uint[](0));\n    uint id = questions.push(_q).sub(1);\n    ownerQuestionCount[msg.sender] = ownerQuestionCount[msg.sender].add(1);\n\n    return id;\n  }\n\n  /**\n   * Gets the owner questions id's\n   */\n  function getQuestionsByOwner(address _owner) external view returns(uint[]) {\n    uint[] memory _indexes = new uint[](ownerQuestionCount[_owner]);\n    uint counter = 0;\n\n    for (uint i = 0; i < questions.length; i++) {\n      if (questions[i].owner == _owner) {\n        _indexes[counter] = i;\n        counter = counter.add(1);\n      }\n    }\n    return _indexes;\n  }\n  \n  /**\n   * Provide an answer to an specific question\n   */\n  function giveAnswer(uint _questionId, string _text) external returns(uint) {\n    uint _answerId = answers.push(Answer(_questionId, _text, msg.sender)).sub(1);\n    questions[_questionId].answers.push(_answerId);\n\n    return _answerId;\n  }\n  \n  /**\n   * Returns all answers to a question\n   */\n  function getAnswersByQuestion(uint _questionId) external view returns(uint[]) {\n    return questions[_questionId].answers;\n  }\n\n  /**\n   * Struct UnPacker\n   * TODO: IS THIS ONLY NEEDED/USED IN THE SOLIDITY TESTS?\n   */\n  function getQuestion(uint _questionId) external view returns (string, address) {\n    return (questions[_questionId].text, questions[_questionId].owner);\n  }\n\n  /**\n   * Struct UnPacker\n   * TODO: IS THIS ONLY NEEDED/USED IN THE SOLIDITY TESTS?\n   */\n  function getAnswer(uint _answerId) external view returns (uint, string, address) {\n    return (answers[_answerId].questionId, answers[_answerId].text, answers[_answerId].owner);\n  }\n\n}",
  "sourcePath": "/Users/aleix/Sites/questions/contracts/QuestionFactory.sol",
  "compiler": {
    "name": "solc",
    "version": "0.4.18+commit.9cf6e910.Emscripten.clang"
  },
  "schemaVersion": "1.0.1",
  "updatedAt": "2018-03-02T14:41:00.519Z"
}