{
  "contractName": "QuestionFactory",
  "abi": [
    {
      "constant": true,
      "inputs": [
        {
          "name": "",
          "type": "uint256"
        }
      ],
      "name": "questionToOwner",
      "outputs": [
        {
          "name": "",
          "type": "address"
        }
      ],
      "payable": false,
      "stateMutability": "view",
      "type": "function"
    },
    {
      "constant": true,
      "inputs": [
        {
          "name": "",
          "type": "uint256"
        }
      ],
      "name": "questions",
      "outputs": [
        {
          "name": "text",
          "type": "string"
        }
      ],
      "payable": false,
      "stateMutability": "view",
      "type": "function"
    },
    {
      "constant": true,
      "inputs": [
        {
          "name": "_owner",
          "type": "address"
        }
      ],
      "name": "getQuestionsByOwner",
      "outputs": [
        {
          "name": "",
          "type": "uint256[]"
        }
      ],
      "payable": false,
      "stateMutability": "view",
      "type": "function"
    },
    {
      "constant": true,
      "inputs": [],
      "name": "allQuestions",
      "outputs": [
        {
          "components": [
            {
              "name": "text",
              "type": "string"
            }
          ],
          "name": "",
          "type": "tuple[]"
        }
      ],
      "payable": false,
      "stateMutability": "view",
      "type": "function"
    },
    {
      "constant": true,
      "inputs": [],
      "name": "owner",
      "outputs": [
        {
          "name": "",
          "type": "address"
        }
      ],
      "payable": false,
      "stateMutability": "view",
      "type": "function"
    },
    {
      "constant": false,
      "inputs": [
        {
          "name": "_text",
          "type": "string"
        }
      ],
      "name": "createQuestion",
      "outputs": [],
      "payable": false,
      "stateMutability": "nonpayable",
      "type": "function"
    },
    {
      "constant": true,
      "inputs": [
        {
          "name": "_questionId",
          "type": "uint256"
        }
      ],
      "name": "getQuestion",
      "outputs": [
        {
          "name": "",
          "type": "string"
        }
      ],
      "payable": false,
      "stateMutability": "view",
      "type": "function"
    },
    {
      "constant": false,
      "inputs": [
        {
          "name": "newOwner",
          "type": "address"
        }
      ],
      "name": "transferOwnership",
      "outputs": [],
      "payable": false,
      "stateMutability": "nonpayable",
      "type": "function"
    },
    {
      "anonymous": false,
      "inputs": [
        {
          "indexed": false,
          "name": "questionId",
          "type": "uint256"
        },
        {
          "indexed": false,
          "name": "_text",
          "type": "string"
        }
      ],
      "name": "NewQuestion",
      "type": "event"
    },
    {
      "anonymous": false,
      "inputs": [
        {
          "indexed": true,
          "name": "previousOwner",
          "type": "address"
        },
        {
          "indexed": true,
          "name": "newOwner",
          "type": "address"
        }
      ],
      "name": "OwnershipTransferred",
      "type": "event"
    }
  ],
  "bytecode": "0x6060604052336000806101000a81548173ffffffffffffffffffffffffffffffffffffffff021916908373ffffffffffffffffffffffffffffffffffffffff160217905550610c4b806100536000396000f30060606040526004361061008e576000357c0100000000000000000000000000000000000000000000000000000000900463ffffffff1680631ebe0a511461009357806331b1b978146100f6578063612ef349146101af5780637ebd1d4f1461023d5780638da5cb5b146102a2578063b3580c1e146102f7578063db88176f14610354578063f2fde38b146103f0575b600080fd5b341561009e57600080fd5b6100b46004808035906020019091905050610429565b604051808273ffffffffffffffffffffffffffffffffffffffff1673ffffffffffffffffffffffffffffffffffffffff16815260200191505060405180910390f35b341561010157600080fd5b610117600480803590602001909190505061045c565b60405180806020018281038252838181546001816001161561010002031660029004815260200191508054600181600116156101000203166002900480156101a05780601f10610175576101008083540402835291602001916101a0565b820191906000526020600020905b81548152906001019060200180831161018357829003601f168201915b50509250505060405180910390f35b34156101ba57600080fd5b6101e6600480803573ffffffffffffffffffffffffffffffffffffffff16906020019091905050610485565b6040518080602001828103825283818151815260200191508051906020019060200280838360005b8381101561022957808201518184015260208101905061020e565b505050509050019250505060405180910390f35b341561024857600080fd5b6102506105b3565b60405180806020018281038252838181518152602001915080516000925b81841015610291578284906020019060200201518152602001926001019261026e565b925050509250505060405180910390f35b34156102ad57600080fd5b6102b56106b8565b604051808273ffffffffffffffffffffffffffffffffffffffff1673ffffffffffffffffffffffffffffffffffffffff16815260200191505060405180910390f35b341561030257600080fd5b610352600480803590602001908201803590602001908080601f016020809104026020016040519081016040528093929190818152602001838380828437820191505050505050919050506106dd565b005b341561035f57600080fd5b6103756004808035906020019091905050610881565b6040518080602001828103825283818151815260200191508051906020019080838360005b838110156103b557808201518184015260208101905061039a565b50505050905090810190601f1680156103e25780820380516001836020036101000a031916815260200191505b509250505060405180910390f35b34156103fb57600080fd5b610427600480803573ffffffffffffffffffffffffffffffffffffffff16906020019091905050610946565b005b60026020528060005260406000206000915054906101000a900473ffffffffffffffffffffffffffffffffffffffff1681565b60018181548110151561046b57fe5b906000526020600020900160009150905080600001905081565b61048d610a9b565b610495610a9b565b600080600360008673ffffffffffffffffffffffffffffffffffffffff1673ffffffffffffffffffffffffffffffffffffffff168152602001908152602001600020546040518059106104e55750595b9080825280602002602001820160405250925060009150600090505b6001805490508110156105a8578473ffffffffffffffffffffffffffffffffffffffff166002600083815260200190815260200160002060009054906101000a900473ffffffffffffffffffffffffffffffffffffffff1673ffffffffffffffffffffffffffffffffffffffff16141561059b5780838381518110151561058457fe5b906020019060200201818152505081806001019250505b8080600101915050610501565b829350505050919050565b6105bb610aaf565b6001805480602002602001604051908101604052809291908181526020016000905b828210156106af578382906000526020600020900160206040519081016040529081600082018054600181600116156101000203166002900480601f0160208091040260200160405190810160405280929190818152602001828054600181600116156101000203166002900480156106975780601f1061066c57610100808354040283529160200191610697565b820191906000526020600020905b81548152906001019060200180831161067a57829003601f168201915b505050505081525050815260200190600101906105dd565b50505050905090565b6000809054906101000a900473ffffffffffffffffffffffffffffffffffffffff1681565b600060018080548060010182816106f49190610ac3565b916000526020600020900160006020604051908101604052808781525090919091506000820151816000019080519060200190610732929190610aef565b505050039050336002600083815260200190815260200160002060006101000a81548173ffffffffffffffffffffffffffffffffffffffff021916908373ffffffffffffffffffffffffffffffffffffffff160217905550600360003373ffffffffffffffffffffffffffffffffffffffff1673ffffffffffffffffffffffffffffffffffffffff168152602001908152602001600020600081548092919060010191905055507f648fb9288c7f65347f70ccafccfc678bc6d28159c705d4b13b4a9e248c7aa67f81836040518083815260200180602001828103825283818151815260200191508051906020019080838360005b83811015610842578082015181840152602081019050610827565b50505050905090810190601f16801561086f5780820380516001836020036101000a031916815260200191505b50935050505060405180910390a15050565b610889610b6f565b60018281548110151561089857fe5b90600052602060002090016000018054600181600116156101000203166002900480601f01602080910402602001604051908101604052809291908181526020018280546001816001161561010002031660029004801561093a5780601f1061090f5761010080835404028352916020019161093a565b820191906000526020600020905b81548152906001019060200180831161091d57829003601f168201915b50505050509050919050565b6000809054906101000a900473ffffffffffffffffffffffffffffffffffffffff1673ffffffffffffffffffffffffffffffffffffffff163373ffffffffffffffffffffffffffffffffffffffff161415156109a157600080fd5b600073ffffffffffffffffffffffffffffffffffffffff168173ffffffffffffffffffffffffffffffffffffffff16141515156109dd57600080fd5b8073ffffffffffffffffffffffffffffffffffffffff166000809054906101000a900473ffffffffffffffffffffffffffffffffffffffff1673ffffffffffffffffffffffffffffffffffffffff167f8be0079c531659141344cd1fd0a4f28419497f9722a3daafe3b4186f6b6457e060405160405180910390a3806000806101000a81548173ffffffffffffffffffffffffffffffffffffffff021916908373ffffffffffffffffffffffffffffffffffffffff16021790555050565b602060405190810160405280600081525090565b602060405190810160405280600081525090565b815481835581811511610aea57818360005260206000209182019101610ae99190610b83565b5b505050565b828054600181600116156101000203166002900490600052602060002090601f016020900481019282601f10610b3057805160ff1916838001178555610b5e565b82800160010185558215610b5e579182015b82811115610b5d578251825591602001919060010190610b42565b5b509050610b6b9190610bb2565b5090565b602060405190810160405280600081525090565b610baf91905b80821115610bab5760008082016000610ba29190610bd7565b50600101610b89565b5090565b90565b610bd491905b80821115610bd0576000816000905550600101610bb8565b5090565b90565b50805460018160011615610100020316600290046000825580601f10610bfd5750610c1c565b601f016020900490600052602060002090810190610c1b9190610bb2565b5b505600a165627a7a72305820e88148b3a60b2b31e0fd6863b99ed7b4799e0e0b76d45a1daad870ee6ab67d9a0029",
  "source": "pragma solidity ^0.4.4;\n\nimport 'zeppelin-solidity/contracts/ownership/Ownable.sol';\n\ncontract QuestionFactory is Ownable {\n  event NewQuestion(uint questionId, string _text);\n\n  struct Question {\n    string text;\n  }\n\n  Question[] public questions;\n\n  mapping (uint => address) public questionToOwner;\n  mapping (address => uint) ownerQuestionCount;\n\n\n  modifier ownerOf(uint _questionId) {\n    require(msg.sender == questionToOwner[_questionId]);\n    _;\n  }\n\n  function createQuestion(string _text) public {\n    uint id = questions.push(Question(_text)) -1;\n    questionToOwner[id] = msg.sender;\n    ownerQuestionCount[msg.sender]++;\n    NewQuestion(id, _text);\n  }\n\n  function getQuestionsByOwner(address _owner) external view returns(uint[]) {\n    uint[] memory result = new uint[](ownerQuestionCount[_owner]);\n    uint counter = 0;\n\n    for (uint i = 0; i < questions.length; i++) {\n      if (questionToOwner[i] == _owner) {\n        result[counter] = i;\n        counter++;\n      }\n    }\n    return result;\n  }\n\n  function getQuestion(uint _questionId) external view returns(string){\n    return questions[_questionId].text;\n  }\n\n  function allQuestions() constant returns(Question[]) {\n    return questions;\n  }\n}\n",
  "sourcePath": "/Users/aleix/Sites/questions/contracts/QuestionFactory.sol",
  "compiler": {
    "name": "solc",
    "version": "0.4.18+commit.9cf6e910.Emscripten.clang"
  },
  "schemaVersion": "1.0.1",
  "updatedAt": "2018-02-20T15:21:53.599Z"
}