{
  "contractName": "QuestionFactory",
  "abi": [
    {
      "constant": true,
      "inputs": [
        {
          "name": "",
          "type": "uint256"
        }
      ],
      "name": "answers",
      "outputs": [
        {
          "name": "text",
          "type": "string"
        },
        {
          "name": "owner",
          "type": "address"
        }
      ],
      "payable": false,
      "stateMutability": "view",
      "type": "function"
    },
    {
      "constant": true,
      "inputs": [
        {
          "name": "",
          "type": "uint256"
        }
      ],
      "name": "questions",
      "outputs": [
        {
          "name": "text",
          "type": "string"
        },
        {
          "name": "owner",
          "type": "address"
        }
      ],
      "payable": false,
      "stateMutability": "view",
      "type": "function"
    },
    {
      "constant": true,
      "inputs": [
        {
          "name": "_owner",
          "type": "address"
        }
      ],
      "name": "getQuestionsByOwner",
      "outputs": [
        {
          "name": "",
          "type": "uint256[]"
        }
      ],
      "payable": false,
      "stateMutability": "view",
      "type": "function"
    },
    {
      "constant": true,
      "inputs": [
        {
          "name": "_questionId",
          "type": "uint256"
        }
      ],
      "name": "getAnswersByQuestion",
      "outputs": [
        {
          "name": "",
          "type": "uint256[]"
        }
      ],
      "payable": false,
      "stateMutability": "view",
      "type": "function"
    },
    {
      "constant": false,
      "inputs": [
        {
          "name": "_questionId",
          "type": "uint256"
        },
        {
          "name": "_text",
          "type": "string"
        }
      ],
      "name": "giveAnswer",
      "outputs": [
        {
          "name": "",
          "type": "bool"
        }
      ],
      "payable": false,
      "stateMutability": "nonpayable",
      "type": "function"
    },
    {
      "constant": true,
      "inputs": [
        {
          "name": "",
          "type": "address"
        }
      ],
      "name": "ownerQuestionCount",
      "outputs": [
        {
          "name": "",
          "type": "uint256"
        }
      ],
      "payable": false,
      "stateMutability": "view",
      "type": "function"
    },
    {
      "constant": false,
      "inputs": [
        {
          "name": "_text",
          "type": "string"
        }
      ],
      "name": "makeQuestion",
      "outputs": [
        {
          "name": "",
          "type": "uint256"
        }
      ],
      "payable": false,
      "stateMutability": "nonpayable",
      "type": "function"
    }
  ],
  "bytecode": "0x6060604052341561000f57600080fd5b610ce78061001e6000396000f300606060405260043610610083576000357c0100000000000000000000000000000000000000000000000000000000900463ffffffff16806317599cc51461008857806331b1b97814610174578063612ef349146102605780636a10ab09146102ee578063a6a1118514610366578063ca12a83d146103b5578063d20b4f7d14610402575b600080fd5b341561009357600080fd5b6100a96004808035906020019091905050610473565b60405180806020018373ffffffffffffffffffffffffffffffffffffffff1673ffffffffffffffffffffffffffffffffffffffff1681526020018281038252848181546001816001161561010002031660029004815260200191508054600181600116156101000203166002900480156101645780601f1061013957610100808354040283529160200191610164565b820191906000526020600020905b81548152906001019060200180831161014757829003601f168201915b5050935050505060405180910390f35b341561017f57600080fd5b61019560048080359060200190919050506104c5565b60405180806020018373ffffffffffffffffffffffffffffffffffffffff1673ffffffffffffffffffffffffffffffffffffffff1681526020018281038252848181546001816001161561010002031660029004815260200191508054600181600116156101000203166002900480156102505780601f1061022557610100808354040283529160200191610250565b820191906000526020600020905b81548152906001019060200180831161023357829003601f168201915b5050935050505060405180910390f35b341561026b57600080fd5b610297600480803573ffffffffffffffffffffffffffffffffffffffff16906020019091905050610517565b6040518080602001828103825283818151815260200191508051906020019060200280838360005b838110156102da5780820151818401526020810190506102bf565b505050509050019250505060405180910390f35b34156102f957600080fd5b61030f6004808035906020019091905050610652565b6040518080602001828103825283818151815260200191508051906020019060200280838360005b83811015610352578082015181840152602081019050610337565b505050509050019250505060405180910390f35b341561037157600080fd5b61039b600480803590602001909190803590602001908201803590602001919091929050506106d0565b604051808215151515815260200191505060405180910390f35b34156103c057600080fd5b6103ec600480803573ffffffffffffffffffffffffffffffffffffffff16906020019091905050610812565b6040518082815260200191505060405180910390f35b341561040d57600080fd5b61045d600480803590602001908201803590602001908080601f0160208091040260200160405190810160405280939291908181526020018383808284378201915050505050509190505061082a565b6040518082815260200191505060405180910390f35b60018181548110151561048257fe5b906000526020600020906002020160009150905080600001908060010160009054906101000a900473ffffffffffffffffffffffffffffffffffffffff16905082565b6000818154811015156104d457fe5b906000526020600020906003020160009150905080600001908060010160009054906101000a900473ffffffffffffffffffffffffffffffffffffffff16905082565b61051f610994565b610527610994565b600080600260008673ffffffffffffffffffffffffffffffffffffffff1673ffffffffffffffffffffffffffffffffffffffff168152602001908152602001600020546040518059106105775750595b9080825280602002602001820160405250925060009150600090505b600080549050811015610647578473ffffffffffffffffffffffffffffffffffffffff166000828154811015156105c657fe5b906000526020600020906003020160010160009054906101000a900473ffffffffffffffffffffffffffffffffffffffff1673ffffffffffffffffffffffffffffffffffffffff16141561063a5780838381518110151561062357fe5b906020019060200201818152505081806001019250505b8080600101915050610593565b829350505050919050565b61065a610994565b60008281548110151561066957fe5b90600052602060002090600302016002018054806020026020016040519081016040528092919081815260200182805480156106c457602002820191906000526020600020905b8154815260200190600101908083116106b0575b50505050509050919050565b60008060018080548060010182816106e891906109a8565b91600052602060002090600202016000604080519081016040528089898080601f01602080910402602001604051908101604052809392919081815260200183838082843782019150505050505081526020013373ffffffffffffffffffffffffffffffffffffffff16815250909190915060008201518160000190805190602001906107769291906109da565b5060208201518160010160006101000a81548173ffffffffffffffffffffffffffffffffffffffff021916908373ffffffffffffffffffffffffffffffffffffffff16021790555050500390506000858154811015156107d257fe5b906000526020600020906003020160020180548060010182816107f59190610a5a565b916000526020600020900160008390919091505550509392505050565b60026020528060005260406000206000915090505481565b6000610834610a86565b60006060604051908101604052808581526020013373ffffffffffffffffffffffffffffffffffffffff16815260200160006040518059106108735750595b9080825280602002602001820160405250815250915060016000805480600101828161089f9190610aca565b9160005260206000209060030201600085909190915060008201518160000190805190602001906108d19291906109da565b5060208201518160010160006101000a81548173ffffffffffffffffffffffffffffffffffffffff021916908373ffffffffffffffffffffffffffffffffffffffff1602179055506040820151816002019080519060200190610935929190610afc565b505050039050600260003373ffffffffffffffffffffffffffffffffffffffff1673ffffffffffffffffffffffffffffffffffffffff168152602001908152602001600020600081548092919060010191905055508092505050919050565b602060405190810160405280600081525090565b8154818355818115116109d5576002028160020283600052602060002091820191016109d49190610b49565b5b505050565b828054600181600116156101000203166002900490600052602060002090601f016020900481019282601f10610a1b57805160ff1916838001178555610a49565b82800160010185558215610a49579182015b82811115610a48578251825591602001919060010190610a2d565b5b509050610a569190610b9f565b5090565b815481835581811511610a8157818360005260206000209182019101610a809190610b9f565b5b505050565b606060405190810160405280610a9a610bc4565b8152602001600073ffffffffffffffffffffffffffffffffffffffff168152602001610ac4610bd8565b81525090565b815481835581811511610af757600302816003028360005260206000209182019101610af69190610bec565b5b505050565b828054828255906000526020600020908101928215610b38579160200282015b82811115610b37578251825591602001919060010190610b1c565b5b509050610b459190610b9f565b5090565b610b9c91905b80821115610b985760008082016000610b689190610c52565b6001820160006101000a81549073ffffffffffffffffffffffffffffffffffffffff021916905550600201610b4f565b5090565b90565b610bc191905b80821115610bbd576000816000905550600101610ba5565b5090565b90565b602060405190810160405280600081525090565b602060405190810160405280600081525090565b610c4f91905b80821115610c4b5760008082016000610c0b9190610c52565b6001820160006101000a81549073ffffffffffffffffffffffffffffffffffffffff0219169055600282016000610c429190610c9a565b50600301610bf2565b5090565b90565b50805460018160011615610100020316600290046000825580601f10610c785750610c97565b601f016020900490600052602060002090810190610c969190610b9f565b5b50565b5080546000825590600052602060002090810190610cb89190610b9f565b505600a165627a7a723058205f447fbfb409f94dde47821678c6c31cf9a3d566a80bd2bc760ceeb2a272b41b0029",
  "source": "pragma solidity ^0.4.18;\n\ncontract QuestionFactory{\n  struct Question {\n    string text;\n    address owner;\n    uint[] answers;\n  }\n\n  struct Answer {\n    string text;\n    address owner;\n  }\n  \n  Question[] public questions;\n  Answer[] public answers;\n\n  mapping (address => uint) public ownerQuestionCount;\n\n  /**\n   * Make a question, providing the reward for the correct answer\n   */\n  function makeQuestion(string _text) public returns(uint) {\n    Question memory _q = Question(_text, msg.sender, new uint[](0));\n    uint id = questions.push(_q) - 1;\n    ownerQuestionCount[msg.sender]++;\n\n    return id;\n  }\n\n  /**\n   * Gets the owner questions id's\n   */\n  function getQuestionsByOwner(address _owner) external view returns(uint[]) {\n    uint[] memory _indexes = new uint[](ownerQuestionCount[_owner]);\n    uint counter = 0;\n\n    for (uint i = 0; i < questions.length; i++) {\n      if (questions[i].owner == _owner) {\n        _indexes[counter] = i;\n        counter++;\n      }\n    }\n    return _indexes;\n  }\n  \n  /**\n   * Provide an answer to an specific question\n   */\n  function giveAnswer(uint _questionId, string _text) external returns(bool) {\n      uint _answerId = answers.push(Answer(_text, msg.sender)) - 1;\n      questions[_questionId].answers.push(_answerId);\n  }\n  \n  /**\n   * Returns all answers to a question\n   */\n  function getAnswersByQuestion(uint _questionId) external view returns(uint[]) {\n      return questions[_questionId].answers;\n  }\n\n}",
  "sourcePath": "/Users/aleix/Sites/questions/contracts/QuestionFactory.sol",
  "compiler": {
    "name": "solc",
    "version": "0.4.18+commit.9cf6e910.Emscripten.clang"
  },
  "schemaVersion": "1.0.1",
  "updatedAt": "2018-03-01T11:35:26.259Z"
}